:030000000208C132
:0C08C100787FE4F6D8FD75811302090869
:100A03005349474E414C3A20524544202D205354DC
:100A13004F5020005349474E414C3A20424C5545D4
:100A2300202D205741495420005349474E414C3A09
:100A330020475245454E202D20474F202000C0F926
:080A4300A4B0999282F88090A2
:0F0B0400020D0014020B00050209000F0108008A
:100AF400758901758C3C758AB0D2AFD2A9D28C228B
:03000B00020800E8
:10080000C0E0C0F0C083C082C0D075D000C000C0BE
:1008100001C002C003C004C005C006C007758C3CFF
:10082000758AB0D3E5109400E50F94004011E510EF
:1008300015107002150FAF10AE0F1209BB8067E5DF
:10084000081460261460422402705BD290C291C2E8
:10085000927F80120AD07BFF7A0A7903120A4B85B5
:100860000D0F850E10750801803CC290D291C29286
:100870007F80120AD07BFF7A0A7917120A4B850B08
:100880000F850C10750802801DC290C291D2927F14
:1008900080120AD07BFF7A0A792C120A4B85090F45
:1008A000850A10750800D007D006D005D004D00303
:1008B000D002D001D000D0D0D082D083D0F0D0E010
:0108C0003205
:100A70007F38120AD0120A947F0C120AD0120A94FC
:100A80007F01120AD0120A947F80120AD07F0A7E58
:040A900000020A98BE
:100AD0008FA0C2B2C2B3D2B47F017E00120A98C204
:020AE000B4223E
:100AE2008FA0D2B2C2B3D2B47F017E00120A98C2E2
:020AF200B4222C
:100A4B008B118A128913AB11AA12A91312094D60CB
:100A5B00130513E5137002051214F912094DFF1259
:050A6B000AE280E22216
:1009BB008E118F12D293C2947C007D0A1209667439
:1009CB00412FF582740A3EF583E493F5807F057E13
:1009DB0000120A98C293D294AE11AF127C007D0A1A
:1009EB0012096674412DF582740A3CF583E493F584
:0809FB00807F057E00020A98CE
:040A94007F0A7E0057
:100A9800E4FDFCC3ED9FEC9E5015E4FBFA0BBB0094
:0F0AA800010ABA04F8BBFBF50DBD00010C80E498
:010AB700221C
:100AB800E4F580F590F5A0120A70120AF4850D0F7E
:080AC800850E10120A9480FB58
:1008CD00020AB8E493A3F8E493A34003F68001F27F
:1008DD0008DFF48029E493A3F85407240CC8C3332C
:1008ED00C4540F4420C8834004F456800146F6DFFB
:1008FD00E4800B0102040810204080900B04E47E7C
:10090D00019360BCA3FF543F30E509541FFEE493EF
:10091D00A360010ECF54C025E060A840B8E493A3B6
:10092D00FAE493A3F8E493A3C8C582C8CAC583CAE1
:10093D00F0A3C8C582C8CAC583CADFE9DEE780BE99
:010B130000E1
:10094D00BB010689828A83E0225002E722BBFE02A8
:09095D00E32289828A83E49322DB
:10096600BC000BBE0029EF8DF084FFADF022E4CC75
:10097600F875F008EF2FFFEE33FEEC33FCEE9DEC3E
:10098600984005FCEE9DFE0FD5F0E9E4CEFD22ED84
:10099600F8F5F0EE8420D21CFEADF075F008EF2FCE
:1009A600FFED33FD4007985006D5F0F222C398FDBF
:0509B6000FD5F0EA225C
:00000001FF
